:020000020000FC
:080000000C9472000C948E00B8
:040014000C94A300A5
:040050000C9492007A
:1000E40001E20EBF0FEF0DBF3FEF31B929E030E061
:1000F4003093800031E030936F0032E03093690038
:1001040032E030936A0031E13DBB0E94B200789442
:100114000C948C000C948C0034E03093810018957E
:100124002A950E94B200203059F430E030938100C7
:1001340030E03093840030E0309385003FEB32B9F7
:10014400189530E032B930E03093810030E03093DC
:10015400840030E03093850029E00E94B2001895B5
:10016400203091F0213099F02230A1F02330A9F011
:100174002430B1F02530B9F02630C1F02730C9F071
:100184002830D1F02930D9F03FE332B9089536E070
:1001940032B908953BE532B908953FE432B9089580
:1001A40036E632B908953DE632B908953DE732B9ED
:1001B400089537E032B908953FE732B908953FE62C
:0401C40032B90895AF
:00000001FF
